{
  "transactions": [
    {
      "hash": "0x633a8c1a158c9648393ddb8efc3a28f4e64f8922da3ce31d1b98f69e15d4a25b",
      "transactionType": "CALL",
      "contractName": null,
      "contractAddress": "0x9cc7e185162aa5d1425ee924d97a87a0a34a0706",
      "function": "sendToken((uint32,bytes32,uint256,uint256,bytes,bytes,bytes),(uint256,uint256),address)",
      "arguments": [
        "(40232, 0x000000000000000000000000844c54b964e0a3e2b8059a76f3be29c7c62f8496, 20000000000000000, 20000000000000000, 0x, 0x, 0x)",
        "(115657667230423, 0)",
        "0x844c54B964E0A3E2B8059a76f3BE29c7c62F8496"
      ],
      "transaction": {
        "from": "0x844c54b964e0a3e2b8059a76f3be29c7c62f8496",
        "to": "0x9cc7e185162aa5d1425ee924d97a87a0a34a0706",
        "gas": "0x5c3e6",
        "value": "0x47771585adbad7",
        "input": "0xcbef2aa9000000000000000000000000000000000000000000000000000000000000008000000000000000000000000000000000000000000000000000006930a62bbad70000000000000000000000000000000000000000000000000000000000000000000000000000000000000000844c54b964e0a3e2b8059a76f3be29c7c62f84960000000000000000000000000000000000000000000000000000000000009d28000000000000000000000000844c54b964e0a3e2b8059a76f3be29c7c62f849600000000000000000000000000000000000000000000000000470de4df82000000000000000000000000000000000000000000000000000000470de4df82000000000000000000000000000000000000000000000000000000000000000000e000000000000000000000000000000000000000000000000000000000000001000000000000000000000000000000000000000000000000000000000000000120000000000000000000000000000000000000000000000000000000000000000000000000000000000000000000000000000000000000000000000000000000000000000000000000000000000000000000000000000000000000000000000000",
        "nonce": "0x6",
        "chainId": "0xaa36a7"
      },
      "additionalContracts": [],
      "isFixedGasLimit": false
    }
  ],
  "receipts": [
    {
      "status": "0x1",
      "cumulativeGasUsed": "0xbd9fe6",
      "logs": [
        {
          "address": "0xcc1ae8cf5d3904cef3360a9532b477529b177cce",
          "topics": [
            "0x61ed099e74a97a1d7f8bb0952a88ca8b7b8ebd00c126ea04671f92a81213318a"
          ],
          "data": "0x000000000000000000000000718b92b5cb0a5552039b593faf724d182a881eda0000000000000000000000000000000000000000000000000000641b27148304",
          "blockHash": "0xa98685669b6fd56470c367b274480cb86e6f95bee69f6f43f683d9382d307ee7",
          "blockNumber": "0x7a9d25",
          "transactionHash": "0x633a8c1a158c9648393ddb8efc3a28f4e64f8922da3ce31d1b98f69e15d4a25b",
          "transactionIndex": "0x69",
          "logIndex": "0xc8",
          "removed": false
        },
        {
          "address": "0xcc1ae8cf5d3904cef3360a9532b477529b177cce",
          "topics": [
            "0x07ea52d82345d6e838192107d8fd7123d9c2ec8e916cd0aad13fd2b60db24644"
          ],
          "data": "0x000000000000000000000000000000000000000000000000000000000000006000000000000000000000000000000000000000000000000000000000000000a000000000000000000000000000000000000000000000000000000000000000c000000000000000000000000000000000000000000000000000000000000000010000000000000000000000008eebf8b423b73bfca51a1db4b7354aa0bfca919300000000000000000000000000000000000000000000000000000000000000000000000000000000000000000000000000000000000000000000000000000001000000000000000000000000000000000000000000000000000005157f1737d3",
          "blockHash": "0xa98685669b6fd56470c367b274480cb86e6f95bee69f6f43f683d9382d307ee7",
          "blockNumber": "0x7a9d25",
          "transactionHash": "0x633a8c1a158c9648393ddb8efc3a28f4e64f8922da3ce31d1b98f69e15d4a25b",
          "transactionIndex": "0x69",
          "logIndex": "0xc9",
          "removed": false
        },
        {
          "address": "0x6edce65403992e310a62460808c4b910d972f10f",
          "topics": [
            "0x1ab700d4ced0c005b164c0f789fd09fcbb0156d4c2041b8a3bfbcd961cd1567f"
          ],
          "data": "0x00000000000000000000000000000000000000000000000000000000000000600000000000000000000000000000000000000000000000000000000000000120000000000000000000000000cc1ae8cf5d3904cef3360a9532b477529b177cce000000000000000000000000000000000000000000000000000000000000009c01000000000000003d00009ce1000000000000000000000000fb112f7fc5725de9f630abb23e4916d6fd7526d300009d28000000000000000000000000ea461d9b1a3d1d45e2aa3a358c3b8cb9bf2c7063310ae86e9306228f505826462f3e3d73f2f88737225d8a2cddeec706d94cd47301000d000000000000000000000000844c54b964e0a3e2b8059a76f3be29c7c62f84960000000000004e20000000000000000000000000000000000000000000000000000000000000000000000016000301001101000000000000000000000000000249f000000000000000000000",
          "blockHash": "0xa98685669b6fd56470c367b274480cb86e6f95bee69f6f43f683d9382d307ee7",
          "blockNumber": "0x7a9d25",
          "transactionHash": "0x633a8c1a158c9648393ddb8efc3a28f4e64f8922da3ce31d1b98f69e15d4a25b",
          "transactionIndex": "0x69",
          "logIndex": "0xca",
          "removed": false
        },
        {
          "address": "0x9cc7e185162aa5d1425ee924d97a87a0a34a0706",
          "topics": [
            "0x85496b760a4b7f8d66384b9df21b381f5d1b1e79f229a47aaf4c232edc2fe59a",
            "0x310ae86e9306228f505826462f3e3d73f2f88737225d8a2cddeec706d94cd473",
            "0x000000000000000000000000844c54b964e0a3e2b8059a76f3be29c7c62f8496"
          ],
          "data": "0x0000000000000000000000000000000000000000000000000000000000009d2800000000000000000000000000000000000000000000000000470de4df82000000000000000000000000000000000000000000000000000000470de4df820000",
          "blockHash": "0xa98685669b6fd56470c367b274480cb86e6f95bee69f6f43f683d9382d307ee7",
          "blockNumber": "0x7a9d25",
          "transactionHash": "0x633a8c1a158c9648393ddb8efc3a28f4e64f8922da3ce31d1b98f69e15d4a25b",
          "transactionIndex": "0x69",
          "logIndex": "0xcb",
          "removed": false
        }
      ],
      "logsBloom": "0x00000000000000000004000000000001000000000000000000000000000100000000000000000000200000000000010000000000000000000000000000000000000002000000000000000000000000200000000000000000000000000000000000040000000000008200000000000000000000000000000000000000000000000000200000000020000000080000000000000000000000000000000000000000000000008000000200100000000000000000000000400000000440000000000000000100000000000000000080000000000000080000000000000000000000000000040000000000000000000000002000000000008000000000000000000020",
      "type": "0x2",
      "transactionHash": "0x633a8c1a158c9648393ddb8efc3a28f4e64f8922da3ce31d1b98f69e15d4a25b",
      "transactionIndex": "0x69",
      "blockHash": "0xa98685669b6fd56470c367b274480cb86e6f95bee69f6f43f683d9382d307ee7",
      "blockNumber": "0x7a9d25",
      "gasUsed": "0x3f12a",
      "effectiveGasPrice": "0x4504b7b",
      "from": "0x844c54b964e0a3e2b8059a76f3be29c7c62f8496",
      "to": "0x9cc7e185162aa5d1425ee924d97a87a0a34a0706",
      "contractAddress": null
    }
  ],
  "libraries": [],
  "pending": [],
  "returns": {},
  "timestamp": 1743605641,
  "chain": 11155111,
  "commit": null
}